:03000000020026D5
:0C002600787FE4F6D8FD75810A02006DB9
:02013900FF6362
:09011F00010900010801010A00B8
:1000D500E4FDFCC3ED9FEC9E5016E4FAFB000BBB60
:1000E50000010ABA0FF7BBFFF40DBD00010C80E358
:0100F50022E8
:10000300900139E493FC740193FDECFFF5CDEDF51C
:10001300CC8FCBF5CAD2CDD2CCC2C9C2C8D2CA22E8
:09012900C29FD29ED29DD29C22FD
:07013200D2AFC2AED2AC2235
:10010F00E4F5FF75A15575A1AA75B10175A1FE2280
:1000B20012013212012912000312010F7FF47E0194
:1000C2001200D5750A01D2997F147E001200D5055F
:0300D2000880F0B3
:030023000200F6E2
:1000F600C0E030990CE50A6006850899750A00C2C9
:0901060099309802C298D0E03251
:100032000200B2E493A3F8E493A34003F68001F232
:1000420008DFF48029E493A3F85407240CC8C333CF
:10005200C4540F4420C8834004F456800146F6DF9E
:10006200E4800B010204081020408090011FE47E0E
:10007200019360BCA3FF543F30E509541FFEE49393
:10008200A360010ECF54C025E060A840B8E493A35A
:10009200FAE493A3F8E493A3C8C582C8CAC583CA85
:1000A200F0A3C8C582C8CAC583CADFE9DEE780BE3D
:0101280000D6
:00000001FF
