:0300000002001EDD
:0C001E00787FE4F6D8FD75810D020065C6
:1000FC00010C00010D00010800010900020A003783
:1000030053890F438920D2AFC2AED2ABE50AF58D37
:07001300E50BF58BD28E22F4
:05010D0012000380FE5A
:03001B000200AA36
:1000AA00C0E0C0D075D000C007E50D25E02080066D
:1000BA004401F50C800454FEF50CE50CB4FF11E57F
:1000CA000DB47F0CE50870047F0180027F008F0861
:1000DA00E50970047F0180027F008F09E50924FF8A
:1000EA009295E50824FF9294850C0DD007D0D0D0C4
:0200FA00E032F2
:10002A0002010DE493A3F8E493A34003F68001F2DE
:10003A0008DFF48029E493A3F85407240CC8C333D7
:10004A00C4540F4420C8834004F456800146F6DFA6
:10005A00E4800B01020408102040809000FCE47E3A
:10006A00019360BCA3FF543F30E509541FFEE4939B
:10007A00A360010ECF54C025E060A840B8E493A362
:10008A00FAE493A3F8E493A3C8C582C8CAC583CA8D
:10009A00F0A3C8C582C8CAC583CADFE9DEE780BE45
:01010C0000F2
:00000001FF
