:03000000020026D5
:0C002600787FE4F6D8FD75814902006D7A
:02015200FF6349
:1000B200010800204009414243444546472C484933
:1000C2004A4B4C4D4E2C4F50515253542C5556576F
:1000D20058595A0A00000000000000000000000009
:1000E200000000000000000000000000000000000E
:0900F200000000000000014900BB
:10000300900152E493FC740193FDECFFF5CDEDF503
:10001300CC8FCBF5CAD2CDD2CCC2C9C2C8D2CA22E8
:09014200C29FD29ED29DD29C22E4
:07014B00D2AFC2AED2AC221C
:1001320012014B120142120003754901D29980FE4D
:030023000200FCDC
:1000FC00C0E0C0D075D000C000C00730991AE549E7
:10010C00601474092508F8E66006F5990508800660
:10011C00750800754900C299309802C298D007D072
:06012C0000D0D0D0E0324B
:10003200020132E493A3F8E493A34003F68001F2B1
:1000420008DFF48029E493A3F85407240CC8C333CF
:10005200C4540F4420C8834004F456800146F6DF9E
:10006200E4800B01020408102040809000B2E47E7C
:10007200019360BCA3FF543F30E509541FFEE49393
:10008200A360010ECF54C025E060A840B8E493A35A
:10009200FAE493A3F8E493A3C8C582C8CAC583CA85
:1000A200F0A3C8C582C8CAC583CADFE9DEE780BE3D
:0100FB000004
:00000001FF
