:0300000002006E8D
:0C006E00787FE4F6D8FD7581080200B52B
:03004600010800AE
:0A00330075C60DE4F5BB75BAFF2297
:09003D00D2AF75E88075FF802246
:0B002800120033E4F59012003D80FE52
:03006B000200038D
:10000300C0E0C0D075D000C007E50870047F018050
:10001300027F008F08E50824FF929475FF80D007C4
:05002300D0D0D0E03256
:10007A00020028E493A3F8E493A34003F68001F274
:10008A0008DFF48029E493A3F85407240CC8C33387
:10009A00C4540F4420C8834004F456800146F6DF56
:1000AA00E4800B0102040810204080900046E47EA0
:1000BA00019360BCA3FF543F30E509541FFEE4934B
:1000CA00A360010ECF54C025E060A840B8E493A312
:1000DA00FAE493A3F8E493A3C8C582C8CAC583CA3D
:1000EA00F0A3C8C582C8CAC583CADFE9DEE780BEF5
:0100490000B6
:00000001FF
