:03000000020016E5
:0C001600787FE4F6D8FD75810802005DDB
:03012A00010800C9
:0A01160053C6FD53BB0F43BAF0229D
:0A01200043C60843BF0C43BE0C2287
:0D000600D2AFC2AED2AAD28AD2A8D288222E
:0E0108001200061201161201207590FF80FEF3
:030003000200A256
:1000A200C0E0C0D075D000C000C007C3E5086480BE
:1000B2009483400575080080020508AF087410A8F3
:1000C20007088002C333D8FCF590D007D000D0D007
:0300D200D0E03249
:030013000200D513
:1000D500C0E0C0D075D000C000C007C3E50864808B
:1000E5009480500575080380021508AF087410A8A0
:1000F50007088002C333D8FCF590D007D000D0D0D4
:03010500D0E03215
:10002200020108E493A3F8E493A34003F68001F2EB
:1000320008DFF48029E493A3F85407240CC8C333DF
:10004200C4540F4420C8834004F456800146F6DFAE
:10005200E4800B010204081020408090012AE47E13
:10006200019360BCA3FF543F30E509541FFEE493A3
:10007200A360010ECF54C025E060A840B8E493A36A
:10008200FAE493A3F8E493A3C8C582C8CAC583CA95
:10009200F0A3C8C582C8CAC583CADFE9DEE780BE4D
:01012D0000D1
:00000001FF
