:0300000002001EDD
:0C001E00787FE4F6D8FD758109020065CA
:0600FE00010800010900E9
:0A00EB0053C6FD53BB0F43BAF022C9
:1000030053890F438910D2AFC2AED2AB758D3C7505
:030013008BAF228E
:0900F500758D3C758BAFD28E2293
:0E00DD001200EBE4F5901200031200F580FE15
:03001B000200AA36
:1000AA00C0E0C0D075D000C0071200F5E508C394BF
:1000BA000A4017E50970047F0180027F008F0975E5
:1000CA000800E50924FF929480020508D007D0D0E1
:0300DA00D0E03241
:10002A000200DDE493A3F8E493A34003F68001F20F
:10003A0008DFF48029E493A3F85407240CC8C333D7
:10004A00C4540F4420C8834004F456800146F6DFA6
:10005A00E4800B01020408102040809000FEE47E38
:10006A00019360BCA3FF543F30E509541FFEE4939B
:10007A00A360010ECF54C025E060A840B8E493A362
:10008A00FAE493A3F8E493A3C8C582C8CAC583CA8D
:10009A00F0A3C8C582C8CAC583CADFE9DEE780BE45
:0101040000FA
:00000001FF
