:03000000020026D5
:0C002600787FE4F6D8FD75810802006DBB
:010021009846
:03001D00010800D7
:0F00C200C29FD29ED29DD29CD2AFC2AED2AC22F0
:10000300758920C2CDC2CC75C9A0758780900021A7
:0A001300E493FFF58B8F8DD28E224F
:0B00D1001200C21200037599A180FE0E
:030023000200B226
:1000B200309907C2998508990508309802C298328A
:100032000200D1E493A3F8E493A34003F68001F213
:1000420008DFF48029E493A3F85407240CC8C333CF
:10005200C4540F4420C8834004F456800146F6DF9E
:10006200E4800B010204081020408090001DE47E11
:10007200019360BCA3FF543F30E509541FFEE49393
:10008200A360010ECF54C025E060A840B8E493A35A
:10009200FAE493A3F8E493A3C8C582C8CAC583CA85
:1000A200F0A3C8C582C8CAC583CADFE9DEE780BE3D
:0100200000DF
:00000001FF
