:0300000002002ECD
:0C002E00787FE4F6D8FD75810C020075A7
:0B001E00010A000208B1DF020B000025
:10000300D2AFC2AED2ADE4F5C9E508FFF5CDAE0976
:0B001300E509F5CC8FCB8ECAD2CA22C3
:0A01040053C6FD53BB0F43BAF022AF
:0B00F900120104120003E4F59080FEE9
:03002B000200BA16
:1000BA00C0E0C0D075D000C007C2CFC3E50C941809
:1000CA00E50B9400401A750B00750C00E50A7004E4
:1000DA007F0180027F008F0AE50A24FF929480083C
:0F00EA00050CE50C7002050BD007D0D0D0E0322A
:10003A000200F9E493A3F8E493A34003F68001F2E3
:10004A0008DFF48029E493A3F85407240CC8C333C7
:10005A00C4540F4420C8834004F456800146F6DF96
:10006A00E4800B010204081020408090001EE47E08
:10007A00019360BCA3FF543F30E509541FFEE4938B
:10008A00A360010ECF54C025E060A840B8E493A352
:10009A00FAE493A3F8E493A3C8C582C8CAC583CA7D
:1000AA00F0A3C8C582C8CAC583CADFE9DEE780BE35
:0100290000D6
:00000001FF
